S01300004C45445F64656C61795F322E737265633D
S113000012C024C023C022C021C020C01FC01EC0F3
S11300101DC01CC01BC01AC019C018C017C016C010
S113002015C014C013C011241FBECFE5D4E0DEBF39
S1130030CDBF10E0A0E6B0E0ECEEF0E002C0059029
S11300400D92A038B107D9F702D04EC0D9CF8FEFA7
S113005081BB17BA12BA88BB86B38E3F81F48FEF87
S113006082BB8FE493EC0197F1F700C0000012BA51
S1130070EFE4F3EC3197F1F700C00000EDCF86B365
S11300808D3F81F529C08FE493EC0197F1F700C00F
S1130090000082B38F3FA1F40FC0EFE4F3EC31977B
S11300A0F1F700C00000FC01EE0FFF1FE05AFF4F04
S11300B0208122BB019702C087E090E099236CF76E
S11300C0FA01EE0FFF1FE059FF4F808192B3892B95
S11300D082BB4F5F5F4F02C040E050E049305105A2
S10F00E094F2BACF12BAB8CFF894FFCF54
S11300EC00000100030007000F001F003F007F0009
S11300FC01000200040008001000200040008000F1
S9030000FC
