:1000000012C024C023C022C021C020C01FC01EC0F7
:100010001DC01CC01BC01AC019C018C017C016C014
:1000200015C014C013C011241FBECFE5D4E0DEBF3D
:10003000CDBF10E0A0E6B0E0E2E9F0E002C005903C
:100040000D92A036B107D9F702D021C0D9CF8FEFDA
:1000500081BB17BA12BA88BB86B38E3FB1F48FEF5B
:1000600082BB2FE986E891E0215080409040E1F783
:1000700000C0000012BA2FE986E891E021508040CC
:100080009040E1F700C00000E7CF12BAE5CFF89446
:02009000FFCFA0
:00000001FF
