:1000000012C02CC02BC02AC029C028C027C026C0BF
:1000100025C024C023C022C021C020C01FC01EC0D4
:100020001DC01CC01BC011241FBECFE5D4E0DEBF25
:10003000CDBF10E0A0E6B0E0ECE1F1E002C0059039
:100040000D92A437B107D9F720E0A4E7B0E001C0D2
:100050001D92A437B207E1F702D05EC0D1CF8FEF77
:1000600081BB17BA83E084BB88BB12BA85BB40E072
:1000700050E060E070E020E030E004C040E050E09C
:1000800029E030E086B3823011F461E070E086B39D
:100090008330F9F461307105E1F482E085BBC90178
:1000A0000196220F331FF901E05AFF4F208122BB36
:1000B000EBE4FDE13197F1F700C000008A309105D3
:1000C00021F09C0160E070E004C060E070E020E09E
:1000D00030E086B3813011F441E050E086B38330E4
:1000E00089F64130510571F682E085BBC90101975F
:1000F000220F331FF901E05AFF4F208122BBEBE4AE
:10010000FDE13197F1F700C0000099230CF4B6CF60
:0C0110009C0140E050E0B6CFF894FFCF17
:10011C003F0006005B004F0066006D007D0007008D
:04012C007F006F00E1
:00000001FF
