:1000000012C024C023C022C021C020C01FC01EC0F7
:100010001DC01CC01BC01AC019C018C017C016C014
:1000200015C014C013C011241FBECFE5D4E0DEBF3D
:10003000CDBF10E0A0E6B0E0EAEFF0E002C005902E
:100040000D92A437B107D9F702D055C0D9CF8FEFA1
:1000500081BB84BB83E088BB12BA20E030E040E083
:1000600050E060E070E004C020E030E069E070E063
:1000700086B3823011F441E050E086B38330E1F47E
:1000800041305105C9F4FB01EE0FFF1FE05AFF4F4D
:10009000808182BB87EA91E60197F1F700C00000FA
:1000A0006F5F7F4F6A30710519F040E050E004C087
:1000B00040E050E060E070E086B3813011F421E070
:1000C00030E086B38330A1F62130310589F6FB019B
:1000D000EE0FFF1FE05AFF4F808182BB87EA91E657
:1000E0000197F1F700C00000615071090AF4BCCF1C
:0A00F00020E030E0BDCFF894FFCF10
:1000FA003F0006005B004F0066006D007D000700B0
:04010A007F006F0003
:00000001FF
