S0130000315F325F636F756E7465722E73726563F0
S113000012C019C018C017C016C015C014C013C040
S113001012C011C010C00FC00EC00DC00CC00BC068
S11300200AC009C008C011241FBECFE5D4E0DEBF5A
S1130030CDBF02D035C0E4CF8FEF81BB12BA17BA5F
S113004083E088BB85B5876085BD14BC80E090E003
S113005020E030E0B09902C081E090E0B09BFACF9C
S113006081309105B9F744B5413019F42F5F3F4F02
S113007014BC283E41E0340711F44FE042BB203D5C
S113008043E0340721F420EF22BB20E030E0B199B3
S1130090E1CF81309105F1F612BA80E090E0DACF39
S10700A0F894FFCFFE
S9030000FC
