:1000000012C019C018C017C016C015C014C013C044
:1000100012C011C010C00FC00EC00DC00CC00BC06C
:100020000AC009C008C011241FBECFE5D4E0DEBF5E
:10003000CDBF02D027C0E4CF8FEF81BB12BA17BA71
:1000400083E088BB83B7856083BF12BE80E090E009
:10005000B09914C022B7243611F4019612BE86302E
:10006000910511F42AEA22BB8C30910511F425E5A3
:1000700022BB8231910514F080E090E0B199E8CF85
:0800800012BAE6CFF894FFCF9D
:00000001FF
