S01800006C6F6769635F6F7065726174696F6E732E737265635B
S113000012C019C018C017C016C015C014C013C040
S113001012C011C010C00FC00EC00DC00CC00BC068
S11300200AC009C008C011241FBECFE5D4E0DEBF5A
S1130030CDBF02D04DC0E4CF8FEF81BB17BA83E0B0
S113004088BB40E050E020E030E080E090E003C076
S1130050AB0120E030E0B09902C081E090E0B09BB9
S11300601AC081309105B9F4BA016F5F7F4F81E006
S113007090E002C0880F991F4A95E2F782BB69306D
S1130080710534F012BA40E050E080E090E003C023
S1130090AB0180E090E0B19902C021E030E0B19B77
S11300A0DACF21303105B9F6BA016150710921E086
S11300B030E002C0220F331F4A95E2F722BB161626
S11300C0170634F212BA40E050E020E030E0C3CF2B
S10700D0F894FFCFCE
S9030000FC
