S01800006C6F6769635F6F7065726174696F6E732E737265635B
S113000012C019C018C017C016C015C014C013C040
S113001012C011C010C00FC00EC00DC00CC00BC068
S11300200AC009C008C011241FBECFE5D4E0DEBF5A
S1130030CDBF02D04AC0E4CF8FEF81BB17BA83E0B3
S113004088BB8FEF9FEF40E050E020E030E002C03B
S113005040E050E0B09902C021E030E0B09B18C00D
S113006021303105A9F4019621E030E0082E02C0C8
S1130070220F331F0A94E2F722BB8930910534F032
S113008012BA80E090E020E030E002C020E030E0EE
S1130090B19902C041E050E0B19BDCCF4130510541
S11300A0C9F6019741E050E0082E02C0440F551FE5
S11300B00A94E2F742BB8F3F4FEF94074CF612BA13
S11100C080E090E040E050E0C5CFF894FFCF20
S9030000FC
