:1000000012C02CC02BC02AC029C028C027C026C0BF
:1000100025C024C023C022C021C020C01FC01EC0D4
:100020001DC01CC01BC011241FBECFE5D4E0DEBF25
:10003000CDBF10E0A0E6B0E0E4EAF0E002C0059039
:100040000D92A036B107D9F720E0A0E6B0E001C0DC
:100050001D92A036B207E1F702D022C0D1CF8FEFB8
:1000600081BB87B387BB87B387BB88B3816088BBFD
:1000700088B3826088BB20E030E086B3811102C083
:1000800021E030E086B3813041F42130310529F49C
:1000900082B3876082BB20E030E086B386B3EDCFC9
:0400A000F894FFCF02
:00000001FF
