S01800006C6F6769635F6F7065726174696F6E732E737265635B
S113000012C02CC02BC02AC029C028C027C026C0BB
S113001025C024C023C022C021C020C01FC01EC0D0
S11300201DC01CC01BC011241FBECFE5D4E0DEBF21
S1130030CDBF10E0A0E6B0E0E8E8F0E002C0059033
S11300400D92A036B107D9F720E0A0E6B0E001C0D8
S11300501D92A036B207E1F702D014C0D1CF83E0DD
S113006081BB12BA17BA88BBB09904C082B381604D
S113007082BBFACFB19904C082B3826082BBF4CF51
S10B008012BAF2CFF894FFCF8D
S9030000FC
