S01100004C45445F64656C61792E73726563D0
S113000012C019C018C017C016C015C014C013C040
S113001012C011C010C00FC00EC00DC00CC00BC068
S11300200AC009C008C011241FBECFE5D4E0DEBF5A
S1130030CDBF02D02EC0E4CF83E084BB81E085BB7A
S11300402FE986E891E0215080409040E1F700C01C
S1130050000015BA2FE986E891E0215080409040D5
S1130060E1F700C0000082E085BB2FE986E891E05B
S1130070215080409040E1F700C0000015BA2FE9FC
S113008086E891E0215080409040E1F700C00000F4
S1090090D5CFF894FFCF68
S9030000FC
