S01100004C45445F64656C61792E73726563D0
S113000012C024C023C022C021C020C01FC01EC0F3
S11300101DC01CC01BC01AC019C018C017C016C010
S113002015C014C013C011241FBECFE5D4E0DEBF39
S1130030CDBF10E0A0E6B0E0E4EBF0E002C0059034
S11300400D92A237B107D9F702D032C0D9CF83E0DD
S113005084BBE0E6F0E0808185BB2FE986E891E08F
S1130060215080409040E1F700C00000828985BBA8
S11300702FE986E891E0215080409040E1F700C0EC
S11300800000828185BB2FE986E891E02150804001
S11300909040E1F700C00000828985BB2FE986E823
S11300A091E0215080409040E1F700C00000D1CFA2
S10700B0F894FFCFEE
S11300B40100020004000800100020004000800039
S10500C4000036
S9030000FC
